:020000040800F2
:1000000090490020B90300085D6800085F68000897
:1000100063680008676800086B680008000000005B
:100020000000000000000000000000004501000882
:100030006F6800080000000089010008832600089E
:10004000D3030008D3030008D3030008D303000838
:10005000D3030008D3030008D3030008D303000828
:1000600071680008D3030008D3030008D303000815
:10007000D3030008D3030008D3030008D303000808
:10008000D3030008D3030008D3030008D3030008F8
:10009000D3030008D3030008D3030008D3030008E8
:1000A000D3030008D3030008D3030008D3030008D8
:1000B0006F6900089F690008AD6A0008D303000853
:1000C000D3030008D3030008D3030008D3030008B8
:1000D000D30300082D730008ED730008D303000854
:1000E000B3680008D3030008D3030008D303000853
:1000F000D3030008D3030008D3030008D303000888
:10010000D3030008D3030008EF6D0008D3030008F1
:10011000D3030008D3030008D3030008D303000867
:10012000D3030008D3030008D3030008D303000857
:10013000DFF80CD007F0A2FA004800471B6800085F
:1001400090490020224B19680868B0E8F00F80F34E
:100150000988BFF36F8F4FF0000080F311884EF0D5
:100160000D0E70470000000006480068006880F32C
:10017000088862B661B6BFF34F8FBFF36F8F00DFA1
:1001800000BF00BF08ED00E0EFF30980BFF36F8F01
:100190000F4B1A6820E9F00F106008B54FF0BF0050
:1001A00080F31188BFF34F8FBFF36F8F02F0EAFE29
:1001B0004FF0000080F31188BDE808401968086816
:1001C000B0E8F00F80F30988BFF36F8F704700BF6E
:1001D00044000020EFF30580704700000CB50020BC
:1001E000019000906B48006840F4803069490860D5
:1001F00000BF6848006800F4003000900198401C7F
:100200000190009818B90198B0F5A06FF1D161483C
:10021000006810F4003F02D00120009001E00020AF
:1002200000900098012842D15B48006840F010001F
:10023000594908600846006820F003000860084635
:10024000006840F002000860524840685149486028
:100250000846406848600846406840F4806048604E
:100260000846406820F47C1048600846406840F426
:10027000E81048600846006840F08070086000BFE1
:100280004448006810F0007FFAD04248406820F0EF
:100290000300404948600846406840F0020048605A
:1002A00000BF3C48406800F00C000828F9D10CBDA4
:1002B00010B5FFF793FF10BD10B53648006840F049
:1002C0000100344908600846406834490840314913
:1002D000486008460068324908402E4908600846D0
:1002E000006820F4802008600846406820F4FE0082
:1002F00048604FF41F008860FFF7DAFF4FF000609E
:100300002849086010BD10B5002100200022214BB3
:100310005B6803F00C0121B1042906D0082928D11B
:1003200007E0214B214C236027E01F4B1F4C23602B
:1003300023E0184B5B6803F47010164B5B6803F402
:100340008032022303EB904022B9194B4343174CF0
:1003500023600DE00F4B5B6813F4003F04D0144B97
:100360004343124C236003E00F4B43430F4C236085
:1003700003E00D4B0D4C236000BF00BF054B5B68D5
:10038000C3F303130B4CE15C084B1B68CB40074CD9
:10039000236010BD00100240002002400000FFF862
:1003A000FFFFF6FE08ED00E000127A0000000020DA
:1003B00000093D0004000020064880470648004729
:1003C000FEE7FEE7FEE7FEE7FEE7FEE7FEE7FEE705
:1003D000FEE7FEE7B9020008310100083149014398
:1003E000314A1160704770B5002100230F22C47894
:1003F0000CB32D4C246804F4E064C4F5E064210AD5
:10040000C1F10403CA40447804FA03F1847814402B
:1004100021430901254C0678A155047804F01F05F5
:100420000124AC4005786D114FF0E02606EB850500
:10043000C5F8004109E0047804F01F050124AC4030
:100440001B4D0678761145F8264070BD194A0A40C2
:100450000243154B1B1F1A60704739B1124A121D17
:1004600012680243104B1B1D1A6006E00E4A121D53
:10047000126882430C4B1B1D1A607047042808D178
:100480004FF0E021096941F004014FF0E0221161D1
:1004900007E04FF0E021096921F004014FF0E0226C
:1004A000116170470000FA050CED00E000E400E087
:1004B00080E100E080FFFF1F10B50446FA48844247
:1004C00008D10121401500F025FF0021601500F042
:1004D00021FF17E0F548844208D10121001500F002
:1004E00019FF0021201500F015FF0BE0F0488442B1
:1004F00008D10121C80300F00DFF00214FF4004096
:1005000000F008FF10BD30B50246002000235068FF
:10051000E84C20400D790C6844EA052420435060E3
:100520009068E54C2040D1E902542C434D7944EACF
:10053000450420439060D06A20F470000C7C641E57
:10054000E4B2234340EA0350D06230BD0021016091
:10055000017141718160C16001210174704721B155
:10056000826842F00102826003E0826822F00102A8
:100570008260704721B1826842F48072826003E039
:10058000826822F480728260704710B50023CBB27B
:100590001AB144681C43446002E044689C434460D0
:1005A00010BD816841F0080181607047014600205C
:1005B0008A6812F0080F01D0012000E00020704787
:1005C000816841F0040181607047014600208A681B
:1005D00012F0040F01D0012000E00020704721B18B
:1005E000826842F4A002826003E0826822F4A002E2
:1005F00082607047014600208A6812F4800F01D0A3
:10060000012000E00020704710B50A4600210023B9
:10061000416821F46041531E41EA4331416010BDFD
:1006200021B1426842F40062426003E0426822F471
:10063000006242607047F0B504460D46002000217C
:10064000092D11DDE068A5F10A0606EB460707262D
:1006500006FA07F18843A5F10A0606EB460603FAF7
:1006600006F10843E0600CE0206905EB450707262A
:1006700006FA07F1884305EB450603FA06F108433D
:100680002061072A0FDA606B561E06EB86071F26CD
:1006900006FA07F18843561E06EB860605FA06F1B0
:1006A0000843606322E00D2A0FDA206BD61F06EBA9
:1006B00086071F2606FA07F18843D61F06EB860633
:1006C00005FA06F10843206310E0E06AA2F10D0686
:1006D00006EB86071F2606FA07F18843A2F10D06EE
:1006E00006EB860605FA06F10843E062F0BD21B18B
:1006F000826842F48012826003E0826822F48012F1
:10070000826070470146C86C80B2704766484C30C2
:100710000068704721B1426842F48062426003E0A1
:10072000426822F480624260704721B1426842F41C
:100730008052426003E0426822F480524260704777
:100740000A460021816821F4E0411143816070472D
:1007500021B1826842F40042826003E0826822F4A0
:1007600000428260704721B1826842F402128260C6
:1007700003E0826822F40212826070470146002082
:100780008A6812F4001F01D0012000E000207047A9
:10079000F0B504461546002000220026092911DD87
:1007A000E068A1F10A0707EB470C072707FA0CF2EC
:1007B0009043A1F10A0707EB470703FA07F210433A
:1007C000E0600CE0206901EB410C072707FA0CF20E
:1007D000904301EB410703FA07F210432061A06B3D
:1007E000C0F30156EF1C06F1010CA7EB0C0707EB59
:1007F000870C1F2707FA0CF29043EF1C06F1010C3F
:10080000A7EB0C0707EB870701FA07F21043A06379
:10081000F0BD10B50A4600210023816B21F4401180
:10082000531E41EA0351816310BD08B500230093B4
:100830000090009B0B440093009B1A6008BD08B514
:10084000024600200090009201F12800009B18440D
:1008500000900098006880B208BD0A4600214168F7
:10086000164B1940114341607047416282627047E4
:100870000A460021416821F01F0111434160704781
:1008800040B109490831096841F40001064A0832BB
:10089000116007E004490831096821F40001024AA7
:1008A0000832116070470000002401400028014018
:1008B000003C0140FFFEF0FFFDF7F1FFFFFD3FFFB1
:1008C0000246002013680B4201D0012000E0002006
:1008D0007047CA430260704770B50246002000238B
:1008E00000240B125568CEB205EA060415681D42B5
:1008F00002D00CB1012000E0002070BD00220A12DD
:10090000D34303607047000001684FF6FE72114048
:1009100001600021016041608160C1608C498842B2
:1009200008D18B490839496841F00F01884A083AD3
:1009300051608AE086491431884208D184490839D7
:10094000496841F0F001824A083A51607DE08049EF
:100950002831884208D17E490839496841F47061DC
:100960007B4A083A516070E079493C31884208D1AD
:1009700077490839496841F47041754A083A51602D
:1009800063E073495031884208D171490839496898
:1009900041F470216E4A083A516056E06C49643166
:1009A000884208D16A490839496841F47001684AA7
:1009B000083A516049E066497831884208D1644973
:1009C0000839496841F07061614A083A51603CE079
:1009D0006049884206D1011F096841F00F01021FDA
:1009E000116032E05B491431884208D15949091F2E
:1009F000096841F0F001574A121F116025E055497E
:100A00002831884208D15349091F096841F47061AF
:100A1000504A121F116018E04E493C31884208D1FB
:100A20004C49091F096841F470414A4A121F11607C
:100A30000BE048495031884207D14649091F0968EF
:100A400041F47021434A121F1160704710B5002213
:100A5000026847F6F0739A430C6A8B6823430C696B
:100A600023434C6923438C692343CC6923434C6A59
:100A700023438C6A23431A430260CB6843600B68AC
:100A800083604B68C36010BD0021016041608160DC
:100A9000C160016141618161C16101624162816244
:100AA000704721B1026842F00102026004E002686E
:100AB0004FF6FE731A40026070471AB103680B4389
:100AC000036002E003688B43036070474160704736
:100AD0000146486880B2704701460020002211F0AC
:100AE000805F03D01B4B083B1A6802E0184B083BA1
:100AF0001A680A4201D0012000E00020704710F07F
:100B0000805F03D01349091F086002E010490839CB
:100B10004860704701460020002211F0805F03D03A
:100B20000C4B083B1A6802E0094B083B1A680A4262
:100B300001D0012000E00020704710F0805F03D05A
:100B40000449091F086002E00149083948607047FC
:100B50000800024008040240002044490860091DC2
:100B60000860091D0860091D086041483F491431AB
:100B70000860704700213D498279002A3AD00A4630
:100B8000126803689A430B461A600A1D12680368CC
:100B90009A430B1D1A60027911440A6803681A43CC
:100BA0000A60324A0832126803689A432F4B0833AE
:100BB0001A601A1D126803689A432C4B0C331A6092
:100BC0004279102A0ED11A1F126803681A43274B64
:100BD00008331A601A1D126803681A43234B0C333A
:100BE0001A600DE02149427911440A6803681A43EA
:100BF0000A6005E0027911440A6803689A430A60B2
:100C000070470021016001710C2141710021817147
:100C100070471649103109680143144A10321160B7
:100C2000704701460020114A143212680A4201D06E
:100C3000012000E0002070470C4914310860704723
:100C4000014600200022094B1B6803EA0102074B02
:100C500014331B680B4202D00AB1012000E00020CF
:100C600070470249143108607047000000040140D9
:100C7000FFFF0F0010B50446CA48844208D1012185
:100C8000042000F047FB0021042000F043FB46E075
:100C9000C548844208D10121082000F03BFB002117
:100CA000082000F037FB3AE0C048844208D1012117
:100CB000102000F02FFB0021102000F02BFB2EE075
:100CC000BB48844208D10121202000F023FB0021F1
:100CD000202000F01FFB22E0B648844208D1012109
:100CE000402000F017FB0021402000F013FB16E02D
:100CF000B148844208D10121802000F00BFB002183
:100D0000802000F007FB0AE0AC48844207D10121B3
:100D1000801500F0FFFA0021A01500F0FBFA10BDCD
:100D200010B50121084600F0F5FA0021012000F07D
:100D3000F1FA10BD2DE9F041024600250026002001
:100D400000230024002791F803C00CF00F0591F850
:100D500003C01CF0100F03D091F802C04CEA050547
:100D600091F800C0BCF1000F31D0146800202BE0D6
:100D70004FF0010C0CFA00F3B1F800C00CEA0306C6
:100D80009E4220D183004FF00F0C0CFA03F7BC43B6
:100D900005FA03FC4CEA040491F803C0BCF1280FE7
:100DA00006D14FF0010C0CFA00FCC2F814C00AE0A6
:100DB00091F803C0BCF1480F05D14FF0010C0CFABB
:100DC00000FCC2F810C0401C0828D1D31460B1F850
:100DD00000C0BCF1FF0F34DD546800202EE000F1AC
:100DE000080C4FF0010808FA0CF3B1F800C00CEA47
:100DF00003069E4221D183004FF00F0C0CFA03F73B
:100E0000BC4305FA03FC4CEA040491F803C0BCF1AE
:100E1000280F05D100F1080C08FA0CF8C2F814806C
:100E200091F803C0BCF1480F07D100F1080C4FF056
:100E3000010808FA0CF8C2F81080401C0828CED32C
:100E40005460BDE8F0814FF6FF710180022181708E
:100E50000421C17070470246002093680B4201D004
:100E6000012000E0002070470146886880B270478A
:100E700002460020D3680B4201D0012000E0002090
:100E800070470146C86880B2704701617047416190
:100E900070470AB1016100E041617047C16070476D
:100EA0004FF480320A438261816182618269826982
:100EB000704702460020424B18684FF68073184076
:100EC00040EA021008433E4B186070473D49C86134
:100ED0007047F0B50A46002300240021002500F0E9
:100EE0000046B6F1004F02D1354EF16901E0344EB3
:100EF0007168C0F3034583B200F44016B6F5401F95
:100F000008D121F070612E4E766826F070662C4F65
:100F10007E6012E000F48016B6F5801F06D103262D
:100F200006FA05F4A14341F0706106E0460D360172
:100F300003FA06F6B14341F0706122B1460D360165
:100F400003FA06F6314300F00046B6F1004F02D135
:100F50001B4EF16101E01A4E7160F0BD30B5002208
:100F60008B071C0F0F2303FA04F2154B08338C1068
:100F700053F824309343124C08348D1044F8253034
:100F800023468C1053F824308C07240F00FA04F405
:100F900023430B4C08348D1044F8253030BD0A49EA
:100FA0000860704700080140000C0140001001403B
:100FB0000014014000180140001C014000200140C5
:100FC0000000014000002042DC0020420E49086081
:100FD00070470D49486070470B49886070474AF672
:100FE000AA200949086070474CF6CC4006490860C1
:100FF000704701460020044AD2680A4201D001200D
:1010000000E000207047000000300040DD4800682C
:1010100040F00100DB49086008464068DA490840B2
:10102000D849486008460068D8490840D549086052
:101030000846006820F4802008600846406820F4D4
:10104000FE0048604FF41F0088607047CD49096872
:1010500021F48031CB4A11601146096821F48021C6
:101060001160B0F5803F03D0B0F5802F0ED106E0BF
:10107000C449096841F48031C24A116007E0C1499E
:10108000096841F4A021BF4A116000E000BF00BF21
:10109000704710B501460022002300204A11012AA2
:1010A00002D1B84C236806E0022A02D1B54C236A6B
:1010B00001E0B44C636A01F01F02012494401C4219
:1010C00001D0012000E0002010BD38B500200090C4
:1010D0000024002500BF3120FFF7DBFF0546009804
:1010E000401C00900098B0F5A06F01D0002DF2D008
:1010F0003120FFF7CEFF08B1012400E00024204694
:1011000038BD014600209F4A106820F0F80040EAF0
:10111000C100106070479E49086070470246002079
:10112000984B586820F47C1042EA01031843954B11
:101130005860704796490866704701460020914AFA
:10114000506820F003000843506070478D484068A5
:1011500000F00C007047014600208A4A506820F0D9
:10116000F00008435060704701460020854A5068EF
:1011700020F4E06008435060704701460020814A37
:10118000506820F4605040EAC1005060704729B1B7
:101190007C4A527A02437B4B5A7204E0794A527A73
:1011A0008243784B5A7270477A490860704701460B
:1011B0000020744A506820F4404008435060704753
:1011C0000021754A11706F4A82F82010012802D060
:1011D000042808D103E001216F4A117004E00521C1
:1011E0006D4A117000E000BF00BF70476B49086096
:1011F00070476449096A0143624A1162704767494E
:1012000044390860704730B50021002200240023D3
:101210005C4D6D6805F00C0121B1042905D0082949
:1012200023D105E05E4D056022E05D4D05601FE0C5
:10123000544D6D6805F47012524D6D6805F480349C
:10124000022505EB92421CB9564D554305600BE053
:101250004C4D6D6815F4003F03D0524D5543056069
:1012600002E04F4D5543056002E04D4D056000BF63
:1012700000BF444D6D6805F0F00109094A4D6B5CF3
:101280000568DD4045603F4D6D6805F4E061090A81
:10129000454D6B5C4568DD4085603A4D6D6805F4F1
:1012A0006051C90A404D6B5C4568DD40C560354DF5
:1012B0006D6805F44041890B3C4D6B5CC568B5FB1E
:1012C000F3F5056130BD29B12E4A526902432D4B19
:1012D0005A6104E02B4A526982432A4B5A61704793
:1012E00029B1284A92690243264B9A6104E0254AB3
:1012F00092698243234B9A61704729B1214AD2698E
:101300000243204BDA6104E01E4AD26982431D4B3E
:10131000DA61704729B11B4AD2680243194BDA607F
:1013200004E0184AD2688243164BDA60704729B14C
:10133000144A12690243134B1A6104E0114A1269FC
:101340008243104B1A617047144940390860704756
:101350000F49C86470470B49C87170470948406A13
:1013600040F0807007494862704701460020054AF6
:1013700092680A4201D0012000E000207047014934
:1013800088727047001002400000FFF8FFFFF6FE71
:1013900000004242D80042422010024080044242F3
:1013A00000127A0000093D001400002024000020F3
:1013B00010B50446FE48844208D10121C014FFF74D
:1013C000A9FF0021E014FFF7A5FFC4E0B4F1804FAE
:1013D00008D101210846FFF7AAFF00210120FFF7ED
:1013E000A6FFB8E0F348844208D101210220FFF7AC
:1013F0009EFF00210220FFF79AFFACE0EE488442F6
:1014000008D101210420FFF792FF00210420FFF7FB
:101410008EFFA0E0E948844208D101210820FFF7AF
:1014200086FF00210820FFF782FF94E0E448844211
:1014300008D101211020FFF77AFF00211020FFF7CB
:1014400076FF88E0DF48844208D101212020FFF7A1
:101450006EFF00212020FFF76AFF7CE0DA4884421B
:1014600008D101214014FFF755FF00216014FFF758
:1014700051FF70E0D548844209D10121C804FFF72B
:1014800049FF00214FF40020FFF744FF63E0D048FC
:10149000844209D101210805FFF73CFF00214FF4E8
:1014A0008010FFF737FF56E0CA48844209D1012176
:1014B0004805FFF72FFF00214FF40010FFF72AFF28
:1014C00049E0C548844208D101214020FFF72FFFA1
:1014D00000214020FFF72BFF3DE0C048844208D1A7
:1014E00001218020FFF723FF00218020FFF71FFF4D
:1014F00031E0BB48844208D101218015FFF717FF76
:101500000021A015FFF713FF25E0B648844209D15A
:1015100001210804FFF7FEFE00214FF48030FFF7A1
:10152000F9FE18E0B048844209D101214804FFF7D0
:10153000F1FE00214FF40030FFF7ECFE0BE0AB486A
:10154000844208D101218804FFF7E4FE00214FF412
:101550008020FFF7DFFE10BD00220288944B9842E6
:101560000ED0994B98420BD0B0F1804F08D0914BE0
:10157000984205D0904B984202D0904B984204D1AB
:101580004FF68F731A404B881A438D4B984207D001
:101590008C4B984204D04FF6FF431A40CB881A4335
:1015A00002808B8883850B880385814B98420BD002
:1015B000854B984208D08B4B984205D08A4B984275
:1015C00002D08A4B984201D10B7A03860123838291
:1015D000704770B5002400220023058C4FF6FE767C
:1015E00035400584028C8388048B4FF68F752C4020
:1015F000B51E2C400D882C43751E2A400D892A43A8
:101600004D882A436A4DA8420BD06F4DA84208D09E
:10161000744DA84205D0744DA84202D0734DA84223
:1016200013D14FF6F7752A404D892A434FF6FB75C3
:101630002A408D882A434FF6FF652B404FF6FF5511
:101640002B408D892B43CD892B4383800483CD8808
:101650008586028470BD70B5002400220023058CAD
:101660004FF6EF7635400584028C8388048B48F66C
:10167000FF752C404FF6FF452C400D884FF6FF7646
:1016800006EA05252C434FF6DF752A400D8906EA48
:1016900005152A434D8806EA05152A43444DA842FC
:1016A00002D0494DA8421DD14FF67F752A404D8981
:1016B0004FF6FF7606EA05152A434FF6BF752A4016
:1016C0008D8806EA05152A434FF6FF352B404FF269
:1016D000FF752B408D8906EA85052B43CD8906EAE7
:1016E00085052B4383800483CD880587028470BDE4
:1016F00070B5002400220023058C4FF6FF663540AC
:101700000584028C8388848B4FF68F752C404FF6AE
:10171000FC752C400D882C434FF6FF552A400D894F
:101720004FF6FF7606EA05252A434D8806EA052589
:101730002A431F4DA84202D0234DA8421DD14FF28B
:10174000FF752A404D894FF6FF7606EA05252A43A4
:101750004FF6FF352A408D8806EA05252A434EF6C6
:10176000FF752B404DF6FF752B408D8906EA051558
:101770002B43CD8906EA05152B4383808483CD88CE
:101780008587028470BD70B5002200230024058C7B
:101790004EF6FF7635400584038C8488828B48F6AC
:1017A000FF752A404FF6FF452A400D8820E00000D3
:1017B000002C01400004004000080040000C0040E4
:1017C000001000400014004000340140004C014073
:1017D000005001400054014000180040001C00402F
:1017E000002000400040014000440140004801400A
:1017F0004FF6FF7606EA05252A434DF6FF752B4086
:101800000D8906EA05352B434D8806EA05352B433D
:10181000FA4DA84202D0FA4DA84208D14BF6FF7506
:101820002C408D894FF6FF7606EA85152C4384807F
:101830008283CD88A0F84050038470BD828B4FF224
:10184000FF331A408283828B4FF6FF7303EA012332
:101850001A4382837047F0B50C46154600220021DA
:101860000026078C4EF6FF7C07EA0C070784828B64
:10187000018C4FF6FF7707EA043640F6FF473A40FF
:101880004FF6FF7707EA05273A434FF6FF7707EA57
:1018900003373A43D94FB8420ED0D94FB8420BD094
:1018A000B0F1804F08D0D74FB84205D0D64FB842DC
:1018B00002D0D64FB84206D14DF6FF77394046F4F4
:1018C0008057394305E047F6FF57394044F48057C5
:1018D000394382830184F0BD828B4FF6F3731A4043
:1018E0008283828B0A4382837047F0B50C4615468B
:1018F000002200210026078C4FF6FF6C07EA0C0738
:101900000784828B018C4FF6FF7707EA04264FF697
:101910000C773A404FF6FF7707EA03172F433A4315
:10192000B64FB8420ED0B64FB8420BD0B0F1804F90
:1019300008D0B44FB84205D0B34FB84202D0B34F2D
:10194000B84206D14FF6FF57394046F48077394305
:1019500005E04FF2FF57394044F4807739438283E2
:101960000184F0BD028B4FF2FF331A400283028BD9
:101970004FF6FF7303EA01231A4302837047F0B561
:101980000C461546002200210026078C4FF6EF7CFE
:1019900007EA0C070784028B018C4FF6FF7707EAF2
:1019A000041640F6FF473A404FF6FF7707EA033741
:1019B0003A434FF6FF7707EA05273A438F4FB8427D
:1019C0000ED08F4FB8420BD0B0F1804F08D08D4F62
:1019D000B84205D08C4FB84202D08C4FB84206D1E5
:1019E0004FF6DF77394046F01007394305E04FF6F0
:1019F0005F77394044F01007394302830184F0BD1A
:101A0000028B4FF6F3731A400283028B0A43028360
:101A10007047F0B50C46154600220021068C4FF6A3
:101A2000FE773E400684028B018C4FF60C763240E6
:101A30007E1C06EA03162E433243704EB0420ED08F
:101A40006F4EB0420BD0B0F1804F08D06D4EB04217
:101A500005D06D4EB04202D06C4EB04206D14FF66A
:101A6000FD76314044F00106314305E04FF6F5764E
:101A7000314044F00106314302830184F0BD70B56A
:101A800005460C465D4885420ED05D4885420BD028
:101A9000B5F1804F08D05B48854205D05A48854251
:101AA00002D05A48854200D100E000BF208850B9DA
:101AB0002389A28861882846FFF7ABFFE188284682
:101AC000FFF79EFF25E0208804280AD12389A288F9
:101AD00061882846FFF753FFE1882846FFF742FF59
:101AE00017E0208808280AD12389A288618828461F
:101AF000FFF7FBFEE1882846FFF7EEFE09E02389A9
:101B0000A28861882846FFF7A6FEE1882846FFF7ED
:101B100095FE70BD2DE9F04105460C4600260127D3
:101B2000608808B9022600E00026A088012801D1BB
:101B3000022700E001272088A0B92389A2886188B4
:101B40002846FFF766FFE1882846FFF759FF2389FB
:101B50003A4631462846FFF712FFE1882846FFF74C
:101B600001FF13E02389A28861882846FFF707FF59
:101B7000E1882846FFF7F6FE23893A463146284693
:101B8000FFF747FFE1882846FFF73AFFBDE8F081FD
:101B90000A884B881A438B881A43CB881A430B89CF
:101BA0001A434B891A438B891A43A0F84420704783
:101BB0004FF6FF71818000210180C1804180017258
:101BC00070470021018041808180C1800181418175
:101BD0008181C18170470021018041800121818084
:101BE0000021C180018170470021018041808180F6
:101BF000C18001814181818170470000002C01403A
:101C0000003401400004004000080040000C004087
:101C100021B1028842F00102028004E002884FF6FE
:101C2000FE731A400280704731B1B0F8442042F48C
:101C30000042A0F8442005E0B0F84420C2F30E02B0
:101C4000A0F8442070471AB183890B43838102E0D6
:101C500083898B43838170478182704741EA020305
:101C6000A0F8483070471AB183890B43838102E0A2
:101C700083898B438381704701894FF6F872114045
:101C8000018170470A46002101894FF68F73194080
:101C900011430181704730B504460D462946204660
:101CA000FFF7F0FF208940F00700208130BD2DE9CB
:101CB000F04104460D4616461F46602D06D13B46B0
:101CC000012231462046FFF75AFE05E03B4601223D
:101CD00031462046FFF79DFE29462046FFF7D2FFFA
:101CE000208940F007002081BDE8F08130B50C4626
:101CF00000210189C9B24FF6FF7505EA0325154396
:101D000025432943018130BD2DE9F04105460E46AA
:101D100017469846002443463A4631462846FFF780
:101D2000E5FF2C894FF6F870044044F007044FF6A5
:101D30008F70044044F070042C81BDE8F081F0B550
:101D400004460D4616461F463B4632462946204667
:101D5000FFF7CCFF208940F480402081F0BD018551
:101D6000828270470A46002101884FF68F7319401E
:101D7000114301807047F0B50C4615461E46002100
:101D8000002200230189028B038C4FF6F87739403B
:101D900021434FF6FC473A4040F201173A434FF6D1
:101DA000DD773B404FF6FF7707EA06172F433B43AB
:101DB000018102830384F0BD0A460021018B4FF6A6
:101DC0008F7319401143018370470A460021018B2C
:101DD00048F6FF7319404FF6FF7303EA02231943D5
:101DE000018370470A460021818B4FF68F7319409B
:101DF0001143818370470A460021818B48F6FF73A7
:101E000019404FF6FF7303EA022319438183704799
:101E100021B1028842F08002028004E002884FF67D
:101E20007F731A400280704721B1828842F0040219
:101E3000828004E082884FF6FB731A4082807047EC
:101E400021B1828842F00802828004E082884FF645
:101E5000F7731A408280704721B1828842F00102F4
:101E6000828004E082884FF6FE731A4082807047B9
:101E70000A460021018B4FF6F77319401143018385
:101E800070470A460021018B4FF2FF7319404FF64D
:101E9000FF7303EA02231943018370470A460021B6
:101EA000818B4FF6F77319401143818370470A46BF
:101EB0000021818B4FF2FF7319404FF6FF7303EA45
:101EC00002231943818370470A460021018B4FF694
:101ED000FB7319401143018370470A460021018BAF
:101EE0004FF6FF3319404FF6FF7303EA02231943FD
:101EF000018370470A460021818B4FF6FB7319401E
:101F00001143818370470A460021818B4FF6FF33CE
:101F100019404FF6FF7303EA022319438183704788
:101F20000A460021018B4FF67F731940114301834C
:101F300070470A460021018BC1F30E014FF6FF7373
:101F400003EA02231943018370470A460021818B6B
:101F50004FF67F7319401143818370470A46002171
:101F6000818BC1F30E014FF6FF7303EA022319437D
:101F7000818370470A460021018C4FF6FD7319409A
:101F80001143018470470A460021018C4FF6F77314
:101F900019401143018470470A460021018C4FF615
:101FA000DF7319404FF6FF7303EA021319430184EC
:101FB00070470A460021018C4FF67F7319404FF697
:101FC000FF7303EA02131943018470470A46002194
:101FD000018C4FF6FF5319404FF6FF7303EA0223BB
:101FE0001943018470470A460021018C4FF2FF73A8
:101FF00019404FF6FF7303EA022319430184704727
:102000000A460021018C4DF6FF7319404FF6FF730D
:1020100003EA023319430184704730B500230124D9
:102020008C40A3B2048C9C430484048C02FA01F516
:10203000ADB22C43048430BD30B5002304248C4061
:10204000A3B2048C9C430484048C02FA01F5ADB263
:102050002C43048430BD70B503460020002418468C
:10206000183001258D40ACB21D8CA5431D8409B1EB
:10207000082909D100EB6100056825F070050560AD
:102080000568154305600EE00D1FC5F34E05284495
:10209000056825F4E045056005684FF6FF7606EA19
:1020A00002263543056070BD21B1028842F002026C
:1020B000028004E002884FF6FD731A4002807047E8
:1020C00021B1028842F00402028004E002884FF647
:1020D000FB731A400280704721B1828842F080026F
:1020E000828004E082884FF67F731A4082807047B6
:1020F00002884FF6F7731A40028002880A43028072
:10210000704782884FF68F731A40828082880A4314
:102110008280704702894FF6F8731A400281028963
:102120000A430281704702894FF67F731A40028189
:1021300002890A4302817047818470478185704714
:10214000818670470187704781877047A0F84010EB
:10215000704702884FF6FF431A40028002880A4304
:10216000028070470146888E70470146088F70478D
:102170000146888F70470146B1F84000704701461C
:10218000888C70470146088D704702460020138AEC
:102190000B4201D0012000E000207047CA430282B8
:1021A000704730B50246002000230024158A05EA56
:1021B0000103958905EA010413B10CB1012000E087
:1021C000002030BDCA4302827047000010B50446AB
:1021D000FB48844209D101218803FFF79BF80021C5
:1021E0004FF48040FFF796F832E0F648844209D178
:1021F00001214804FFF79BF800214FF40030FFF75E
:1022000096F825E0F048844209D101218804FFF7BF
:102210008EF800214FF48020FFF789F818E0EB4892
:10222000844209D10121C804FFF781F800214FF44D
:102230000020FFF77CF80BE0E548844208D101213B
:102240000805FFF774F800214FF48010FFF76FF8CE
:1022500010BD2DE9F04786B005460E460024A24683
:1022600000BFA1460027B08900B100BF2F462C8ACD
:102270004CF6FF700440F08804432C82AC894EF683
:10228000F3100440B088318908437189084304433E
:10229000AC81AC8A4FF6FF400440B0890443AC8265
:1022A00001A8FEF7B0FFC648874202D1DDF810A0B2
:1022B00001E0DDF80CA0A88910F4004F08D00AEB6B
:1022C000CA0000EB0A1031684900B0FBF1F807E0E2
:1022D0000AEBCA0000EB0A1031688900B0FBF1F884
:1022E0006420B8FBF0F004012009642101FB10898F
:1022F000A88910F4004F08D0322000EBC900B0FBD1
:10230000F1F000F00700044308E0322000EB091070
:102310006421B0FBF1F000F00F0004432C8106B003
:10232000BDE8F0874FF41651016000218180C18023
:1023300001810C21418100218181704710B5024645
:102340000020108A4FF2FF0318400B884C8823436B
:102350008C882343CC8823431843108210BD00216E
:10236000018041808180C180704721B1828942F41F
:102370000052828104E082894DF6FF731A40828107
:102380007047F0B503460024002600250020A1F583
:1023900010676A3F00D100BF1846C1F3421401F034
:1023A0001F06012707FA06F5012C01D10C3004E0C5
:1023B000022C01D1103000E014301AB107682F430D
:1023C000076002E00768AF430760F0BD1AB1838A77
:1023D0000B43838202E0838A8B4383827047028AA5
:1023E0004FF6F0731A400282028A0A430282704753
:1023F00082894FF2FF731A40828182890A43828167
:10240000704721B1828942F00202828104E0828910
:102410004FF6FD731A4082817047028A4FF6DF73D0
:102420001A400282028A0A430282704721B1028A5C
:1024300042F48042028204E0028A4BF6FF731A40A3
:1024400002827047C1F30802828070470146888883
:10245000C0F308007047818941F001018181704714
:10246000028BD2B20283028B42EA012202837047BE
:10247000028B02F47F420283028B0A43028370477D
:1024800021B1828A42F02002828204E0828A4FF6E1
:10249000DF731A408282704721B1828A42F01002B3
:1024A000828204E0828A4FF6EF731A40828270477C
:1024B00021B1828A42F00802828204E0828A4FF6C9
:1024C000F7731A408282704721B1828942F4004238
:1024D000828103E08289C2F30E028281704721B1BA
:1024E000828A42F40062828204E0828A4FF2FF73A1
:1024F0001A4082827047828A4FF6FB731A408282AA
:10250000828A0A438282704721B1828A42F00202A3
:10251000828204E0828A4FF6FD731A4082827047FD
:1025200002460020B1F5007F00D100BF13880B42A6
:1025300001D0012000E00020704701F40072B2F5E4
:10254000007F00D100BFCA430280704770B50246C9
:102550000024002300250020A1F510666A3E00D16A
:1025600000BFC1F3421501F01F03012606FA03F371
:10257000012D02D19689334006E0022D02D1168A40
:10258000334001E0968A33400C12012606FA04F427
:102590001688344013B10CB1012000E0002070BD5A
:1025A00010B500220023A1F510646A3C00D100BFE1
:1025B0000A1201249440A3B2DC43048010BD000041
:1025C000003801400044004000480040004C0040FA
:1025D0000050004000BFBF2080F31188BFF34F8F31
:1025E000BFF36F8F00BF00BFFEE7001F4FF0807387
:1025F0000360001F21F001030360001F2D4B0360E7
:10260000143802602038704700204FF0E021086144
:1026100088612948486107200861704710B527483C
:10262000006840F47F00254908600846006840F0D3
:102630007F400860FFF7E8FF002021490860FDF7B0
:1026400093FD002010BD704700BFBF2080F31188AC
:10265000BFF34F8FBFF36F8F00BF19480068401C56
:1026600017490860704716480068401E1449086002
:102670000846006820B9002080F3118800BF00BF21
:10268000704710B500BFBF2080F31188BFF34F8F94
:10269000BFF36F8F00BF00F045FA20B14FF08050BC
:1026A00006491C39086000BF002080F3118800BF74
:1026B00010BD0000D52500083F19010020ED00E005
:1026C00028000020434A22F00700434A10600022FD
:1026D000414B5A6043F6F872404B5A6000221A6030
:1026E000014643F6F8724A601A460A6070472DE9BF
:1026F000F04104464FF0000800F05DFB38480068E8
:1027000020B9FFF7DFFF01203549086044B10834E4
:1027100014F0070F04D004F00700C0F108000444CF
:10272000002C32D043F6F87084422ED22A4F38461D
:10273000056801E02F462D686868A04202D228682B
:102740000028F7D1254885421FD0386800F10808D5
:10275000286838606868001B102810D92E1968682E
:10276000001B70606C6071681B4800E000680268C4
:1027700052688A42FAD302683260066000BF194983
:1027800068680968081A1749086000F049FA404665
:10279000BDE8F08170B506463546B6B1083D2C4619
:1027A00000F009FB61680C4800E0006802685268AC
:1027B0008A42FAD30268226004600A4960680968A4
:1027C00008440849086000F02BFA70BD054800680D
:1027D0007047704798000020340000203C00002023
:1027E000300000202C00002000F1080141604FF073
:1027F000FF31816000F10801C160016100210160C9
:10280000704700210161704742684A6093688B609D
:10281000936859609160086103685B1C03607047AE
:1028200010B502460B685C1C01D1106907E002F18B
:10283000080000E04068446824689C42FAD9446873
:102840004C604C68A160886041600A611468641C37
:10285000146010BD01460A69D1E901309860D1E9E0
:10286000010358605068884201D188685060002098
:1028700008611068401E10601068704710B5002491
:1028800007E004EB8401FE4A02EB8100FFF7ACFF96
:10289000641C082CF5D3FB48FFF7A6FFFA48FFF7A6
:1028A000A3FFFA48FFF7A0FFF948FFF79DFFF9489B
:1028B000FFF79AFFF348F8490860F348F7490860C2
:1028C00010BD10B50446FFF7BFFEF5480068401C78
:1028D000F3490860F348006840B9F24804600846CC
:1028E000006801280DD1FFF7C9FF0AE0EE48006833
:1028F00038B9EC480068C06AE16A884201D8E94802
:102900000460EA480068401CE849086094F82C100C
:1029100001208840E64909680843E5490860E16A02
:1029200001EB8101D64A02EB8100211DFFF76CFF0C
:10293000FFF799FEDC48006868B1DA480068C06AB1
:10294000E16A884207D24FF08050DA490860BFF34D
:102950004F8FBFF36F8F10BD2DE9FF5F80460E468E
:102960009146DDE90E7A109CA9F10100216B01EB83
:10297000800B2BF0070B86B1002507E0715D04F199
:1029800034004155705D00B902E06D1C102DF5D387
:1029900000BF00214320015502E0002084F83400EC
:1029A000082F00D30727E762201DFFF72AFF04F155
:1029B0001800FFF726FF2461C7F10800A0616462D8
:1029C0000020606484F8480041465846039AFFF7A7
:1029D0000CFE2060BAF1000F01D0CAF80040BDE83B
:1029E000FF9F2DE9FF4F85B0804689461746DDE9F8
:1029F00012ABB800FFF77BFE064656B14C20FFF73E
:102A000076FE04460CB1266304E03046FFF7C2FEB2
:102A100000E000247CB10020CDE900ABCDE902400C
:102A20003A4649464046089BFFF796FF2046FFF787
:102A300048FF012501E04FF0FF35284609B0BDE809
:102A4000F08F95490968096809B9012100E0002162
:102A500021B14FF0FF31984A116006E08E490968B4
:102A6000C968C868944A41681160704710B5044647
:102A7000206BFFF78FFE2046FFF78CFE10BD70B570
:102A80000546FFF7E1FD15B98648006800E02846D5
:102A90000446201DFFF7DEFE78B9E06A00EB8000F7
:102AA000774951F8200040B994F82C100120884053
:102AB0007F49096881437E480160A06A18B104F12A
:102AC0001800FFF7C7FE79480068401C7749086086
:102AD00074480068844209D1211D6D48FFF794FEB7
:102AE00076480068401C7549086009E06C48006839
:102AF000401E6B4908602046FFF7B8FFFFF7A1FFB3
:102B0000FFF7B1FD6848006858B166480068844224
:102B100007D14FF0805067490860BFF34F8FBFF374
:102B20006F8F70BD2DE9F0410027654800680028CF
:102B300068D164480068451C624805608DB95648F4
:102B4000D0F8008055480068534908605348C0F8E1
:102B500000805D480068401C5B490860FFF771FF1A
:102B600000BF5548006885423BD300BF4A48006813
:102B7000006808B9012000E0002020B14FF0FF30CC
:102B80004D4908602CE044480068C068C468666825
:102B9000B54202D24848066022E0201DFFF75AFEE7
:102BA000A06A18B104F11800FFF754FE94F82C1035
:102BB000012088403E49096808433D490860E16AB0
:102BC00001EB81012E4A02EB8100211DFFF71CFE63
:102BD0003449E06A0968C96A8842C7D30127C5E752
:102BE00000BF30480068C06A00EB8000244951F8FB
:102BF0002000012800D901273448006808B903F0F3
:102C000017FE06E031480068401C3049086003F0B8
:102C10000FFE2F48006800B101273846BDE8F0815B
:102C200070B500240026FFF70FFD25480068401E00
:102C3000234908600846006800287AD118480068CF
:102C4000002876D04FE01148C068C46804F118002D
:102C5000FFF700FE201DFFF7FDFD94F82C1001206A
:102C6000884013490968084311490860E16A01EB8B
:102C70008101034A02EB8100211DFFF7C5FD29E018
:102C80009040002030410020444100205841002065
:102C90006C41002080410020780000207C00002052
:102CA0004C00002044000020580000206800002054
:102CB0005400002004ED00E06C00002048000020DB
:102CC0007400002050000020640000205C00002000
:102CD00060000020F849E06A0968C96A884202D3A6
:102CE0000120F6490860F648006808B9012000E0B4
:102CF00000200028A7D00CB1FFF7A3FEF14805681B
:102D000065B100BFFFF70EFF10B10120EB4908606D
:102D10006D1E002DF6D10020EA490860E7480068E2
:102D200038B101263007E8490860BFF34F8FBFF381
:102D30006F8FFFF798FC304670BD2DE9F0410546D6
:102D40000E46E2480768DC480068001DFFF782FD78
:102D500050B9D948006890F82C1001208840DC490F
:102D600009688143DA480160681C07D136B1D2484E
:102D70000168091DD748FFF747FD1AE07C19CE48C6
:102D800000684460BC4207D2CB480168091DD248A4
:102D90000068FFF745FD0CE0C7480168091DCF48F2
:102DA0000068FFF73DFDCE480068844201D2CC4860
:102DB0000460BDE8F081CB480068401CC949086048
:102DC00070472DE9F047044688464FF00009FFF7A9
:102DD000F2FFBE480668206800EB08052068B04294
:102DE00007D92068A8420BD9B54209D94FF001098B
:102DF00006E02068A84201D8B54201D94FF0010988
:102E00002560B9F1000F03D0A81B0021FFF795FF43
:102E1000FFF706FF07463FB94FF08050AA49086008
:102E2000BFF34F8FBFF36F8FBDE8F08770B50446D7
:102E3000002544B1FFF7BFFF00212046FFF77DFFCB
:102E4000FFF7EEFE05463DB94FF080509E49086001
:102E5000BFF34F8FBFF36F8F70BD70B50446FFF7A0
:102E6000F3FB14B99448006800E020460646F56A72
:102E7000FFF7F9FB284670BD70B5024600BFBF25BD
:102E8000EFF3118485F31188BFF34F8FBFF36F8F7A
:102E900000BF214612B9884C246800E0144623463E
:102EA000D86A00BF81F3118800BF70BD2DE9F047DB
:102EB00080460D464FF00009082D00D30725FFF787
:102EC000C3FBB8F1000F02D17B48006800E0404628
:102ED0000446E66AAE4251D0B5420BD97648006846
:102EE00084420DD074480068C06AA84208D84FF0E8
:102EF000010905E070480068844201D14FF00109E2
:102F0000E76AE562A06910F0004F02D1C5F1080040
:102F1000A06107EB8701744A02EB81016069884276
:102F200001D1012000E00020E0B1201DFFF792FC5C
:102F300030B90120B840664909688143644801609E
:102F400094F82C10012088406149096808436049C1
:102F50000860E16A01EB8101634A02EB8100211DF7
:102F6000FFF752FCB9F1000F07D04FF080505649DF
:102F70000860BFF34F8FBFF36F8F00BFFFF773FB86
:102F8000BDE8F0875748006818B101204B49086038
:102F90001DE00020494908604D480068B0FA80F003
:102FA000C0F11F0101EB81024F4B03EB820042682D
:102FB0005268426000F108024368934202D14268BD
:102FC000526842604268D2683B4B1A6000BF70474B
:102FD00070B50546FFF738FB15B93748006800E0C3
:102FE00028460446201DFFF735FC78B9E06A00EB5F
:102FF00080003D4951F8200040B994F82C10012080
:10300000884033490968814331480160A06A18B19A
:1030100004F11800FFF71EFC211D2E48FFF7F4FBFA
:1030200094F84800012802D1002084F84800FFF7F6
:103030001AFB2E48006828B1FFF706FBFFF701FDD9
:10304000FFF711FB1C480068844217D1274800682D
:1030500040B14FF080501C490860BFF34F8FBFF361
:103060006F8F0BE01B48006821490968884203D133
:1030700000201149086001E0FFF784FF70BD10B522
:10308000014600200A46134C5369A34201D1012393
:1030900000E0002373B10A4C936AA34201D10123DB
:1030A00000E0002333B9936A0BB9012300E0002349
:1030B00003B1012010BD000044000020600000208A
:1030C000584100205C00002004ED00E0500000208A
:1030D00054000020804100207C0000207800002067
:1030E0006C00002074000020904000205800002058
:1030F0004C00002070B505462C46FE48006884420E
:103100002BD054B3FFF7A0FA2046FFF7B8FF10B357
:10311000201DFFF79FFB94F82C1001208840F649F2
:1031200009680843F4490860E16A01EB8101F34A48
:1031300002EB8100211DFFF767FBEE49E06A096899
:10314000C96A884207D34FF08050ED490860BFF349
:103150004F8FBFF36F8FFFF786FA70BD2DE9F041F7
:1031600006460027344600BFBF21EFF3118081F3EC
:103170001188BFF34F8FBFF36F8F00BF0546204606
:10318000FFF77DFF20B3DF480068E0B9D949E06A66
:103190000968C96A884200D30127201DFFF75AFB3E
:1031A00094F82C1001208840D34909680843D2497B
:1031B0000860E16A01EB8101D04A02EB8100211D28
:1031C000FFF722FB04E004F11801CF48FFF71CFBD6
:1031D00000BF85F3118800BF3846BDE8F08110B507
:1031E00016E0FFF731FAC948C068C468201DFFF730
:1031F00031FBC7480068401EC5490860C5480068E3
:10320000401EC4490860FFF72EFA2046FFF72EFC47
:10321000C04800680028E4D110BD00BFFFF7DFFF01
:10322000B64800680128F9D94FF08050B4490860C9
:10323000BFF34F8FBFF36F8FF0E71CB5B648002187
:103240000B468022CDE90010B4A1B648FFF7C9FBB8
:103250000446012C14D100BFBF2080F31188BFF3B6
:103260004F8FBFF36F8F00BF4FF0FF30AE49086044
:103270000120AE4908600020AD490860FFF7CEF993
:103280001CBD10B500BFBF2080F31188BFF34F8F66
:10329000BFF36F8F00BF0020A4490860FFF7D3F988
:1032A00010BDA349086870470021A14A1068704703
:1032B000974800687047014611B98E48006800E0E1
:1032C0000846024602F13400704770B505460C46C8
:1032D0008848016818312846FFF7A2FA01212046E4
:1032E000FFF72BFD70BD70B506460C46154644F041
:1032F00000408049096888617E480168183130467D
:10330000FFF782FA01212846FFF717FD70BD70B55F
:103310000646F068C46804F11800FFF79BFA794884
:103320000068A8B9201DFFF795FA94F82C10012029
:1033300088407149096808436F490860E16A01EBF8
:1033400081016E4A02EB8100211DFFF75DFA04E066
:1033500004F118016C48FFF757FA6649E06A0968FA
:10336000C96A884204D9012501207249086000E039
:103370000025284670BD70B505460E4646F0004053
:103380002860EC682846FFF765FA201DFFF762FA0F
:1033900094F82C1001208840574909680843564981
:1033A0000860E16A01EB8101544A02EB8100211DB2
:1033B000FFF72AFA4F49E06A0968C96A884202D9C8
:1033C00001205C49086070BD10B50446FFF73CF968
:1033D000594800682060564800686060FFF743F96C
:1033E00010BD55490968016051490968416070473D
:1033F00070B506460C46FFF727F94D48026870681D
:10340000131A2068401C01D1002517E04A49306892
:103410000968884204D07068904201D801250DE007
:103420002068984207D92068C01A20603046FFF70C
:10343000D8FF002502E0002020600125FFF713F9E6
:10344000284670BD01203B4908607047294909683A
:10345000886928490968C96AC1F10801254A1268C2
:103460009161704770B506460D46FFF7EDF82148AB
:103470000068406C88B901201E49096881F848003D
:103480005DB101212846FFF758FC4FF080501C49E0
:103490000860BFF34F8FBFF36F8FFFF7E4F8FFF7BC
:1034A000D3F814480068446C4CB126B1002011498F
:1034B0000968486403E0601E0E49096848640020FA
:1034C0000C49096881F84800FFF7CDF8204670BD27
:1034D0002DE9F0410746884614461D46FFF7B4F82B
:1034E0000448006890F8480002283ED00149096865
:1034F00024E0000044000020540000209040002000
:1035000004ED00E074000020584100206C410020D0
:103510004C000020480000207000002049444C4529
:10352000000000001B3200086C0000205800002042
:1035300050000020600000206400002001F14400E1
:10354000496CB94301600120B249096881F848001B
:103550005DB101212846FFF7F0FB4FF08050AE49E6
:103560000860BFF34F8FBFF36F8FFFF77CF8FFF753
:103570006BF81CB1A7480068406C2060A548006843
:1035800090F84800022801D0002608E0A149096807
:1035900001F14400496C21EA080101600126002084
:1035A0009C49096881F84800FFF75DF83046BDE89E
:1035B000F0812DE9F04781460D4616461F464FF033
:1035C000010A4C46FFF740F80FB1606C386094F880
:1035D0004880022084F84800052E17D2DFE806F064
:1035E0001503070B0D00606C284360640FE0606CEE
:1035F000401C60640BE0656409E0B8F1020F01D083
:10360000656401E04FF0000A01E000E000BF00BF88
:10361000B8F1010F22D1201DFFF71CF994F82C10EE
:10362000012088407D49096808437C490860E16AB7
:1036300001EB81017A4A02EB8100211DFFF7E4F8DA
:103640007449E06A0968C96A884207D94FF0805016
:1036500071490860BFF34F8FBFF36F8FFFF703F817
:103660005046BDE8F0872DE9F84F83460D461646D3
:103670001F46DDF828A0012000905C4600BFBF2156
:10368000EFF3118081F31188BFF34F8FBFF36F8F7A
:1036900000BF81460FB1606C386094F8488002200A
:1036A00084F84800052E17D2DFE806F01503070B53
:1036B0000D00606C284360640FE0606C401C606427
:1036C0000BE0656409E0B8F1020F01D0656401E028
:1036D0000020009001E000E000BF00BFB8F1010F42
:1036E0002CD150480068A8B9201DFFF7B3F894F812
:1036F0002C1001208840494909680843474908605F
:10370000E16A01EB8101464A02EB8100211DFFF7CE
:103710007BF804E004F118014348FFF775F83D49D0
:10372000E06A0968C96A884208D9BAF1000F02D074
:103730000120CAF8000001203C49086000BF89F35D
:10374000118800BF0098BDE8F88F2DE9F0410546CB
:103750000E462C4600BFBF21EFF3118081F3118884
:10376000BFF34F8FBFF36F8F00BF074694F84880B9
:10377000022084F84800606C401C6064B8F1010FBE
:1037800029D128480068A8B9201DFFF763F894F8EC
:103790002C10012088402149096808431F4908600E
:1037A000E16A01EB81011E4A02EB8100211DFFF756
:1037B0002BF804E004F118011B48FFF725F8154920
:1037C000E06A0968C96A884205D90EB101203060F3
:1037D00001201649086000BF87F3118800BFBDE8CB
:1037E000F08170B5054615B90A48006800E0284622
:1037F0000646FEF729FF96F84800022804D100206B
:1038000086F84800012400E00024FEF72CFF204643
:1038100070BD00004400002004ED00E054000020D2
:1038200090400020740000205841002060000020DB
:103830000146F94A12688A4203D3F74A1268501ABD
:1038400004E0F64A521AF44B1B68D0187047F2484D
:103850000068704770B505460E46EF48A0F81C5149
:10386000002405E0315DEC481C300155601C84B239
:10387000AC42F7DB002240F22551E948FEF781FD1A
:10388000012240F22661E648FEF77BFD70BD70B56F
:1038900004460D461646AA21DF4880F89C10DD211B
:1038A00080F89D1080F89E4080F89F5080F8A060BE
:1038B00090F89C1090F89D004840D74991F89E10D0
:1038C0004840D54991F89F104840D34991F8A0103D
:1038D0004140D14880F8A11000F19C010620FFF77B
:1038E000B9FF70BD0121CC4880F82011002180F87B
:1038F0002211A0F82411704700B50246C648B0F85E
:10390000280108B9FFF7EEFFC34890F8200100F046
:103910000F0009287ED2DFE800F0F4051B314B656B
:10392000819DC300AA2A0ED10221BB4880F8201134
:1039300090F822015040B84981F822010A21B64886
:10394000A0F8281103E00021B348A0F82811D9E01D
:10395000DD2A0ED10321B04880F8201190F8220111
:103960005040AD4981F822010A21AB48A0F8281146
:1039700003E00021A848A0F82811C3E00421A648CC
:1039800080F820110A21A0F82811B0F82411B0F80D
:103990002401401C83B2A048A0F824315C3042547A
:1039A0005C3890F8220150409B4981F82201A9E03F
:1039B0000521994880F820110A21A0F82811B0F8B3
:1039C0002411B0F82401401C83B29348A0F824319C
:1039D0005C3042545C3890F8220150408E4981F8A6
:1039E00022018FE006218C4880F820110A21A0F8DE
:1039F0002811B0F82411B0F82401401C83B2864885
:103A0000A0F824315C3042545C3890F822015040D8
:103A1000814900E075E081F8220173E007217E48CA
:103A200080F820110A21A0F8281180F82121B0F88F
:103A30002411B0F82401401C83B27748A0F8243147
:103A40005C3042545C3890F822015040724981F851
:103A5000220157E0704890F82101401EC1B26E4823
:103A600080F8211190F8210118B908216A4880F8DE
:103A700020110A216848A0F82811B0F82411B0F8E4
:103A80002401401C83B26448A0F824315C304254C5
:103A90005C3890F8220150405F4981F8220131E002
:103AA0005D4890F82201904226D100215A48A0F8A2
:103AB000261111E05848B0F826115C30415C5C38A2
:103AC000B0F82631DC30C154DC38B0F82601401C97
:103AD00081B25148A0F826114F48B0F8261190F84D
:103AE0005F00001D8142E5DB01214B4880F82A116F
:103AF0000021A0F8281103E000214748A0F8281170
:103B000000E000BF00BF00BD70B505460E4642484C
:103B1000A0F82C52002404E0315D42480155601C9D
:103B200084B2AC42F8DB012240F226613E48FEF747
:103B300028FC70BD2DE9F04705460E4617461C4689
:103B4000DDE908895521344880F8AC11AA2180F8B4
:103B5000AD1180F8AE5180F8AF6180F8B0712112DC
:103B600080F8B11180F8B2414FEA282180F8B311F2
:103B700080F8B48180F8B59190F8AE1190F8AF015B
:103B80004840254991F8B0114840234991F8B111B6
:103B90004840214991F8B21148401F4991F8B311AA
:103BA00048401D4991F8B41148401B4991F8B5119E
:103BB0004140194880F8B61100F5D6710B20FFF787
:103BC000A3FFBDE8F0870121134880F830120021DF
:103BD00080F83212A0F83412704700B502460E4841
:103BE000B0F8380208B9FFF7EEFF0B4890F8300242
:103BF00000F00F0007287CD2DFE800F0AF041D2C96
:103C000047627F00552A11D10221034880F8301203
:103C10000A21A0F838120DE094410020005C26052E
:103C200000380140C0420020004400400021F84814
:103C3000A0F8381292E0AA2A07D10321F44880F8AC
:103C400030120A21A0F8381203E00021F048A0F851
:103C5000381283E00421EE4880F830120A21A0F8DF
:103C60003812B0F83412B0F83402401C83B2E8487D
:103C7000A0F8343200F5B6704254E54890F83202AC
:103C80005040E34981F8320268E00521E04880F8BD
:103C900030120A21A0F83812B0F83412B0F8340209
:103CA000401C83B2DA48A0F8343200F5B6704254B2
:103CB000D74890F832025040D54981F832024DE0A1
:103CC0000621D34880F830120A21A0F83812B0F843
:103CD0003412B0F83402401C83B2CD48A0F834321C
:103CE00000F5B6704254CA4890F832025040C849B4
:103CF00000E032E081F8320230E0C54890F832024C
:103D0000904225D10021C248A0F8361213E0C048E5
:103D1000B0F8361200F5B670415CBD48B0F83632E6
:103D200000F5F670C154BA48B0F83602401C81B2B2
:103D3000B748A0F83612B648B0F836020328E6DBDA
:103D40000121B34880F83A120021A0F8381203E0AC
:103D50000021AF48A0F8381200E000BF00BF00BD4E
:103D600000B5FFF774FDAA49486000BD182871D25C
:103D7000DFE800F00C16202A343E48525C66717B66
:103D8000858F99A3ADB7C1CBD5DFE9F4012903D164
:103D90000122A04B1A6002E000229E4B1A60E8E06C
:103DA000012903D101229C4B1A6002E000229A4BA8
:103DB0001A60DEE0012903D10122984B1A6002E06B
:103DC0000022964B1A60D4E0012903D10122944BC2
:103DD0001A6002E00022924B1A60CAE0012903D166
:103DE0000122904B1A6002E000228E4B1A60C0E064
:103DF000012903D101228C4B1A6002E000228A4B78
:103E00001A60B6E0012903D10122884B1A6002E052
:103E10000022864B1A60ACE0012903D10122844BB9
:103E20001A6002E00022824B1A60A2E0012903D14D
:103E30000122804B1A6002E000227E4B1A6098E05B
:103E4000012903D101227C4B1A6002E000227A4B47
:103E50001A608EE08CE0012903D10122774B1A60B1
:103E600002E00022754B1A6083E0012903D1012290
:103E7000734B1A6002E00022714B1A6079E001294D
:103E800003D101226F4B1A6002E000226D4B1A60D1
:103E90006FE0012903D101226B4B1A6002E000227E
:103EA000694B1A6065E0012903D10122674B1A6052
:103EB00002E00022654B1A605BE0012903D1012278
:103EC000634B1A6002E00022614B1A6051E0012945
:103ED00003D101225F4B1A6002E000225D4B1A60A1
:103EE00047E0012903D101225B4B1A6002E0002266
:103EF000594B1A603DE0012903D10122574B1A604A
:103F000002E00022554B1A6033E0012903D101225F
:103F1000534B1A6002E00022514B1A6029E001293C
:103F200003D101224F4B1A6002E000224D4B1A6070
:103F30001FE0012903D101224B4B1A6002E000224D
:103F4000494B1A6015E0012904D10122474B1A6040
:103F500003E003E00022454B1A600AE0012903D187
:103F60000122434B1A6002E00022414B1A6000E03C
:103F700000BF00BF70472DE9F047804689461646CE
:103F80001C46002500270CE049464046FCF763FF2D
:103F9000B04201D1681CC5B20A20FEF747FF781C69
:103FA000C7B2A742F0DB95FBF4F0C5B2012D02D1F8
:103FB0000120BDE8F0870020FBE72DE9F0478146AE
:103FC0008A4614461D460027B846FEF73DFB0121F0
:103FD0002848FDF71DFE51464846FCF73CFF0646C3
:103FE00005E0781C0746B0F5801F00D305E0514678
:103FF0004846FCF730FFB042F3D000BF0020044930
:10400000086139E0781C0746B0F5801F34D339E0E9
:104010009441002080812142848121428C8121426F
:104020009081214294812142988121429C812142A8
:10403000A0812142A4812142A8812142AC81214258
:10404000B0812142B4812142B881214290012142B4
:104050009401214298012142940122429801224276
:104060009C012242A0012242A4012242A801224234
:10407000AC0122420004004051464846FCF7EBFEEA
:10408000B042BFD100BF002705E0781C0746B0F55D
:10409000801F00D305E051464846FCF7DCFEB042E5
:1040A000F3D000BFFA48D0F810800021F948FDF79E
:1040B000AFFDFEF7D8FA601B404505D860194045B2
:1040C00002D30120BDE8F0870020FBE72DE9F04195
:1040D00007460D4616460024A0460BE03888C0F37C
:1040E0000B00204484B20A20FEF7A0FE08F1010074
:1040F00000F0FF08B8F1050FF0DB052094FBF0F0AD
:1041000084B2A81BA04205DAA819A04202DD012052
:10411000BDE8F0810020FBE72DE9F04780468946A5
:104120001546002600271DB90120DB4908600DE077
:10413000012D03D10120D949086007E0022D05D1E6
:104140000120D7490860D749C1F8940140F2CF2136
:104150004FF0C80002F036F91421D348FDF7F2FF02
:10416000FEF772FA0121CB48FDF752FD4946404661
:10417000FCF771FE044605E0701C0646B0F5801F92
:1041800000D305E049464046FCF765FEA042F3D067
:1041900000BF0020BE49086105E0701C0646B0F56E
:1041A000801F00D305E049464046FCF754FEA0427C
:1041B000F3D100BF002605E0701C0646B0F5801F55
:1041C00000D305E049464046FCF745FEA042F3D047
:1041D00000BFAF4807690021AE48FDF719FDFEF7A3
:1041E00042FA0020AC490860B049C1F884014FF0A0
:1041F00047014FF01A0002F0E5F80021AA48FDF748
:10420000A1FF082F04D30C2F02D80120BDE8F087AE
:104210000020FBE770B505460C46012D04D0022DA9
:104220001DD0032D4ED135E0012C07D10121984836
:1042300080F841129E48FDF7EBFC0FE00021944806
:1042400080F841129A48FDF7E3FC0021904880F87D
:10425000411280F846129448FDF772FF33E0012CBA
:1042600009D18B4890F8810220F00200801C884917
:1042700081F881020DE0864890F8810220F0020169
:10428000834880F8811200208A4908608A49C1F871
:10429000840118E0012C09D17D4890F8810220F0BA
:1042A0000400001D7A4981F881020AE0784890F8FC
:1042B000810220F00401764880F8811200207F49B5
:1042C000086000E000BF00BF70BD70B504460D4639
:1042D000012C02D0022C1ED100E01DE0012D0DD1D9
:1042E0006B4890F8D00320F008000830684981F846
:1042F000D00301216748FDF78BFC0BE0644890F880
:10430000D00320F00801624880F8D01300216148F2
:10431000FDF77EFC00E000BF00BF70BD10B5044695
:104320005B4890F8460201280AD1012C04D10D21E6
:104330005D48FDF705FF03E000215B48FDF700FF46
:1043400010BD03468B4203DB934201DC0120704722
:104350000020FCE710B5044604EB8401584810F82F
:104360001100C0F34000002873D004EB84015448CE
:1043700000EB41008078C0F16400C1B204EB84021C
:104380004F4800EB4200C17004EB84014C4810F828
:104390001100C0F3800090BB04EB8402484901EB9C
:1043A0004201C87832222821FFF7CBFF01280DD126
:1043B00004EB8401424810F8110020F00401091DAB
:1043C00004EB84023E4800F81210F4E004EB840190
:1043D0003B4810F8110020F0040104EB8402384837
:1043E00000F81210002104EB840200EB420001717E
:1043F00004EB8402324800EB42004171DBE0FFE74E
:1044000004EB84012E4800EB41000079401CC1B24E
:1044100004EB84022A4800EB4200017104EB8402A1
:10442000274901EB4201C87808220321FFF789FFE1
:1044300001280FD104EB8401214800EB41004079B1
:104440004006010E04EB84021D4800EB420041715E
:1044500050E08CE004EB8402194901EB4201C8787A
:104460000E220921FFF76DFF01282BD104EB8401F7
:10447000134800EB41004079012101EB4000C1B23B
:1044800004EB84020E4800EB4200417132E0000070
:104490009441002000040040AC81234284812142E9
:1044A0009081234200802342002C01400080214261
:1044B0000008004080012142000021429C0121426D
:1044C000DC43002004EB8401954810F8110020F033
:1044D000040104EB8402924800F81210002104EB5E
:1044E000840200EB4200017104EB84028C4800EB73
:1044F0004200417104EB8401894800EB41000079DE
:10450000082858DB04EB8401854810F8110020F0DE
:10451000020104EB8402824800F8121004EB8401CB
:1045200000EB410040797F49087004EB84017C482E
:1045300000EB4100417904EB8402794800EB420032
:10454000817104EB8401764800EB41008079A32857
:1045500031D104EB8401724810F8110020F00801F9
:10456000083104EB84026E4800F8121023E004EBDB
:1045700084016B4810F8110020F00201891C04EB43
:104580008402674800F8121004EB840110F811004F
:1045900020F0040104EB8402614800F812100021AD
:1045A00004EB840200EB4200017104EB84025C48DE
:1045B00000EB42004171642104EB8402584800EB97
:1045C0004200817010BD00EB8002554911F81210B5
:1045D00021F0080200EB8003514901F8132000EBA1
:1045E000800201EB42018979A3290ED1012200EB5F
:1045F00080034B4901EB4301CA714FF4FA7200EB9F
:104600008003474901EB43010A817047014601EBF2
:104610008102434800EB4200C07900F0010070477E
:1046200001460A291AD2DFE801F00507090B0D0F30
:1046300011131517302012E0312010E032200EE067
:1046400033200CE034200AE0352008E0362006E074
:10465000372004E0382002E0392000E000BF00BF2E
:10466000704770B504460D462A460A2092FBF0F1C9
:1046700000FB112086B23046FFF7D2FF20710A20DE
:1046800092FBF0F082B20A2092FBF0F100FB1120C5
:1046900086B23046FFF7C4FFE0700A2092FBF0F0CC
:1046A00082B20A2092FBF0F100FB112086B2304664
:1046B000FFF7B6FFA0700A2092FBF0F082B20A204A
:1046C00092FBF0F100FB112086B23046FFF7A8FF05
:1046D00060700A2092FBF0F082B20A2092FBF0F1A7
:1046E00000FB112086B23046FFF79AFF207070BDA4
:1046F00010B50024FFF7ABF80B49486107E00A4802
:10470000B0F8B803A04202DD0748B0F8B843064944
:104710004869FFF78DF83228F1D3204610BD00001C
:10472000DC430020810000209441002010B52021AE
:104730002748FCF790FBF0B9264890F87A02C0F3BE
:10474000001058BB234890F87B02401CC1B221489E
:1047500080F87B1290F87B0203281FDD03211D489F
:1047600080F87B1290F87A0220F02000203019495E
:1047700081F87A0212E0174890F87A02C0F34010EC
:1047800040B1144890F87A0220F01000103011491E
:1047900081F87A0200210F4880F87B1210BD00BF1B
:1047A000FFF755F80546FCF71AFCFFF7BFFF284650
:1047B000FFF73EF8322806D22846FFF739F8C0F155
:1047C0003200C4B200E000242046FEF72FFBE7E7EA
:1047D00000080140944100202DE9FF4F83B00446BA
:1047E0000D461646DDF84C90DDE910784FF0000AD2
:1047F000D34600BF0AF10100C0B28246484502DD3F
:1048000007B0BDE8F08FCDE9007832462946204652
:10481000069BFFF78FF9FFF71AF8FE49886116E04B
:10482000FC4890F83A0210F0010F10D0F94890F8C7
:10483000EC01A0420BD1F74890F8ED01A84206D157
:10484000F44890F8EE01012801D1834606E0F149D1
:104850008869FEF7EDFF12998842E1D300BF00217D
:10486000EC4880F83A12BBF1000FC3D000BFC7E795
:104870002DE9F0470746884691461C46DDE908A524
:1048800000260021E34880F8E010BAF1000F22D1A1
:1048900000BF701CC0B20646A84202DD0020BDE881
:1048A000F0874A4641463846FEF7F1FF2046FEF7BC
:1048B000BDFAD84890F82A0110F0010FE9D0D54888
:1048C00090F82A0110F0010F1BD0D24890F8E000B8
:1048D0000028DED015E000BF701CC0B20646A8421A
:1048E00001DD0020DBE74A4641463846FEF7CFFFB0
:1048F0002046FEF79BFAC74890F82A0110F0010FF6
:10490000EAD00021C34880F82A110120C7E786B009
:1049100000BFFCF764FBBF4890F82A0110F0010FBC
:1049200035D00021BB4880F82A11002000900346B2
:104930000122114601900220FFF7FCF84FF47A7033
:10494000FEF774FAB34890F83C0220F00200801C95
:10495000B04981F83C020120AF490860AF49C1F875
:10496000BC014FF00000AE49086042F21070FEF743
:104970005DFA0520012164230A46CDE900100020DC
:10498000FFF776FFA34890F8DE1080F83D12A148AB
:1049900090F87A02C0F30010002854D09D4890F897
:1049A0007A0220F010019B4880F87A1290F87A027F
:1049B00020F02001974880F87A124FF41B725100C2
:1049C0009848FFF783FB012811D101210D20FFF743
:1049D000CDF903204FF47A71002200921346CDE9FD
:1049E00001210390012202210846FFF7F5FE4FF452
:1049F000D97240F6B2118B48FFF768FB012815D138
:104A000001210B20FFF7B2F901210C20FFF7AEF9CD
:104A100003204FF47A71002200921346CDE9012160
:104A20000390012211460220FFF7D6FE794890F844
:104A30003C0220F00200801C764981F83C020121F2
:104A4000744880F83D12734890F83C02C0F340006F
:104A500000283FF45EAF6F4890F83D1290F83E0298
:104A60008142F6D06B4890F83D1280F83E1290F8E3
:104A70003D0215287ED2DFE810F07D0015002800E9
:104A80006600B00004014201FE017302DD024B0327
:104A9000B5031F048B04F8046205CC054106A40687
:104AA00012079B0703204FF47A71002200921346ED
:104AB000CDE901210390012211461046FFF78CFE3B
:104AC0000221544880F83D128BE30121002001F0BF
:104AD00036F901210846FFF79DFB01210220FFF76F
:104AE000F4FB4FF47A70FEF7A1F90220FFF78EFD78
:104AF00001280ED103204FF47A7100220092134650
:104B0000CDE901210390012202211046FFF764FE46
:104B100010E003204FF47A71002200921346CDE991
:104B20000121039002210120FFF756FE012139489F
:104B300080F8CE130021084601F001F90321354821
:104B400080F83D12C0E70121032001F0F8F8314858
:104B500090F8D00320F0400040302E4981F8D00377
:104B60004FF49670FEF762F92A4890F8D10310F0DE
:104B7000010F00E0FEE30ED003204FF47A71002213
:104B800000921346CDE9012103900122014610460F
:104B9000FFF722FE10E003204FF47A71002200920A
:104BA0001346CDE90121039001460120FFF714FED1
:104BB0000121184880F8CE13164890F8D00320F051
:104BC0004001144880F8D0130021032001F0B7F809
:104BD0000421104880F83D1276E70121022001F0FF
:104BE000AEF80C4890F8D00320F02000203009499E
:104BF00081F8D0034FF49670FEF718F9054890F845
:104C0000D0030121B1EBD01F19D103204FF47A71E9
:104C1000002209E094410020B0012142000021421D
:104C2000840123428645002000921346CDE90121EC
:104C30000390012204211046FFF7CEFD10E003206F
:104C40004FF47A71002200921346CDE901210390BE
:104C500004210120FFF7C0FD0121FE4880F8CE139A
:104C6000FC4890F8D00320F02001FA4880F8D013D7
:104C70000021022001F063F80521F64880F83D127A
:104C800022E70121084601F05AF84FF47A70FEF746
:104C9000CDF80320FFF7BAFC01280ED103204FF412
:104CA0007A71002200921346CDE90121039001227E
:104CB00005211046FFF790FD10E003204FF47A71B4
:104CC000002200921346CDE9012103900521012025
:104CD000FFF782FD0121DF4880F8CE13002101207B
:104CE00001F02DF800210120FFF794FA0621D948A0
:104CF00080F83D1200210220FFF7E7FAE4E60121E7
:104D00000220FFF787FA4FF4FA70FEF78FF8D148C8
:104D1000B0F8C013A0F8DE13B0F8C213A0F8E21385
:104D2000B0F8DE03B0F52F7F0EDBCA48B0F8DE0323
:104D3000B0F5FA6F08DCC74890F8D00320F0020005
:104D4000801CC44981F8D003C248B0F8E203B0F532
:104D50002F7F0EDBBF48B0F8E203B0F5FA6F08DC36
:104D6000BC4890F8D00320F00400001DB94981F838
:104D7000D00300210220FFF74DFAC820FEF756F8B5
:104D800001210320FFF746FA4FF4FA70FEF74EF8C0
:104D9000B048B0F8B413A0F8D813B0F8B613A0F820
:104DA000DA13B0F8D803B0F5487F41DA01210020CA
:104DB000FEF7DCFF4FF4FA60FEF738F8A548B0F8CC
:104DC000B413A0F8D613B0F8D603B0F57A7F15DD8A
:104DD00003214FF47A7200239E48B0F8D603CDE940
:104DE0000132039100909B48B0F8D803034601229A
:104DF000062105901046FFF7EFFC2FE003214FF44A
:104E00007A7202239348B0F8D603CDE901320391B8
:104E100000909048B0F8D803034600220621059080
:104E20000120FFF7D9FC01218A4880F8CE1315E054
:104E300003204FF47A710023CDE90030CDE9021050
:104E40008448B0F8D80303460022062105900120CB
:104E5000FFF7C2FC01217F4880F8CE1307217D486F
:104E600080F83D1200210846FEF780FF4FF4FA60FB
:104E7000FDF7DCFF28E6FFF73BFC7649A1F8DC03F1
:104E80000846B0F8DC03B0F57A7F4ADA084690F8B5
:104E9000D00320F01000103081F8D0030121084623
:104EA000FEF764FF40F2DC50FDF7C0FFFFF720FC87
:104EB0006849A1F8D6030846B0F8D603B0F5487F94
:104EC00015DD03214FF47A7200236248B0F8D6034F
:104ED000CDE90132039100905E48B0F8DC0303464F
:104EE0000122072105901046FFF776FC2FE00321F1
:104EF0004FF47A7202235748B0F8D603CDE9013255
:104F0000039100905348B0F8DC03034600220721C8
:104F100005900120FFF760FC01214E4880F8CE1378
:104F200015E003204FF47A710023CDE90030CDE97C
:104F300002104848B0F8DC03034600220721059020
:104F40000120FFF749FC0121424880F8CE130821D7
:104F5000404880F83D1200210120FEF707FFB3E52D
:104F60003C4890F8D003C0F30010E0B301210220C8
:104F7000FEF7FCFE40F2DC50FDF758FFFFF7B8FBF0
:104F80003449A1F8D6030846B0F8D603B0F5966FB9
:104F900015DD03214FF47A7200232E48B0F8D603B2
:104FA000CDE90132039100902A48B0F8DC030346B2
:104FB0000122082105901046FFF70EFC31E0032185
:104FC0004FF47A7202232348B0F8D603CDE90132B8
:104FD000039100901F48B0F8DC030346002208212B
:104FE0000590012000E006E0FFF7F6FB01211948DB
:104FF00080F8CE1315E003204FF47A710023CDE939
:105000000030CDE902101348B0F8DC03034600225B
:10501000082105900120FFF7DFFB01210D4880F8F2
:10502000CE1309210B4880F83D1200210220FEF723
:105030009DFE49E5074890F8D003C0F30010E8B39F
:1050400001210320FEF792FE40F2DC50FDF7EEFE58
:1050500002E0000094410020FFF74AFBFE49A1F85E
:10506000D6030846B0F8D603B0F5966F15DD0321D8
:105070004FF47A720023F848B0F8D603CDE9013234
:1050800003910090F448B0F8DC03034601220921A3
:1050900005901046FFF7A0FB31E003214FF47A7230
:1050A0000223ED48B0F8D603CDE901320391009018
:1050B000E948B0F8DC030346002200E009E00921DA
:1050C00005900120FFF788FB0121E34880F8CE130B
:1050D00015E003204FF47A710023CDE90030CDE9CB
:1050E0000210DD48B0F8DC030346002209210590D8
:1050F0000120FFF771FB0121D74880F8CE130A2168
:10510000D54880F83D1200210320FEF72FFEDBE496
:10511000D14890F8D003C0F30010E0B3012104207F
:10512000FEF724FE40F2DC50FDF780FEFFF7E0FAC8
:10513000C949A1F8D6030846B0F8D603B0F5966F72
:1051400015DD03214FF47A720023C348B0F8D6036B
:10515000CDE9013203910090BF48B0F8DC0303466B
:1051600001220A2105901046FFF736FB31E00321AA
:105170004FF47A720223B848B0F8D603CDE9013271
:1051800003910090B448B0F8DC03034600220A21E2
:105190000590012000E006E0FFF71EFB0121AE486C
:1051A00080F8CE1315E003204FF47A710023CDE987
:1051B0000030CDE90210A848B0F8DC030346002215
:1051C0000A2105900120FFF707FB0121A24880F882
:1051D000CE130B21A04880F83D1200210420FEF7D9
:1051E000C5FD15E29C4890F8D003C0F30010E0B371
:1051F00001210520FEF7BAFD40F2DC50FDF716FE56
:10520000FFF776FA9449A1F8D6030846B0F8D6031A
:10521000B0F5966F15DD03214FF47A7200238E48A6
:10522000B0F8D603CDE90132039100908A48B0F876
:10523000DC03034601220B2105901046FFF7CCFA50
:1052400031E003214FF47A7202238348B0F8D60389
:10525000CDE90132039100907F48B0F8DC030346AA
:1052600000220B210590012000E006E0FFF7B4FAD0
:105270000121794880F8CE1315E003204FF47A71AC
:105280000023CDE90030CDE902107348B0F8DC030B
:10529000034600220B2105900120FFF79DFA012112
:1052A0006D4880F8CE130C216B4880F83D12002128
:1052B0000520FEF75BFDD1E3674890F8D003C0F30B
:1052C0000010E0B301210620FEF750FD40F2DC5053
:1052D000FDF7ACFDFFF70CFA5F49A1F8D6030846CD
:1052E000B0F8D603B0F5966F15DD03214FF47A724E
:1052F00000235948B0F8D603CDE90132039100905C
:105300005548B0F8DC03034601220C2105901046F5
:10531000FFF762FA33E003214FF47A7202234E481A
:10532000B0F8D603CDE90132039100904A48B0F8B5
:10533000DC03034600220C210590012000E006E07A
:10534000FFF74AFA0121444880F8CE1317E0032002
:105350004FF47A710023CDE90030CDE902103E48C8
:10536000B0F8DC03034600220C2105900120FFF772
:1053700033FA00E071E30121374880F8CE130D21A4
:10538000354880F83D1200210620FEF7EFFC65E36A
:10539000314890F8D003C0F30010E0B3012107209A
:1053A000FEF7E4FC40F2DC50FDF740FDFFF7A0F90A
:1053B0002949A1F8D6030846B0F8D603B0F5966F90
:1053C00015DD03214FF47A7200232348B0F8D60389
:1053D000CDE90132039100901F48B0F8DC03034689
:1053E00001220D2105901046FFF7F6F931E0032167
:1053F0004FF47A7202231848B0F8D603CDE901328F
:10540000039100901448B0F8DC03034600220D21FC
:105410000590012000E006E0FFF7DEF901210E48CB
:1054200080F8CE1315E003204FF47A710023CDE904
:105430000030CDE902100848B0F8DC030346002232
:105440000D2105900120FFF7C7F90121024880F8DE
:10545000CE130E21004801E09441002080F83D1257
:1054600000210720FEF782FCF8E2FE4890F8D00306
:10547000C0F30010F0B301210820FEF777FC40F2E2
:10548000DC50FDF7D3FCFFF733F9F649A1F8D6035A
:105490000846B0F8D603B0F5966F15DD03214FF43A
:1054A0007A720023EF48B0F8D603CDE901320391B8
:1054B0000090EC48B0F8DC03034601220E21059071
:1054C0001046FFF789F931E003214FF47A72022385
:1054D000E448B0F8D603CDE9013203910090E148E9
:1054E000B0F8DC03034600220E2105900120FFF7EF
:1054F00073F900E004E00121DA4880F8CE1315E0EA
:1055000003204FF47A710023CDE90030CDE9021079
:10551000D448B0F8DC03034600220E210590012098
:10552000FFF75AF90121CF4880F8CE130F21CD485B
:1055300080F83D1200210820FEF718FC8EE2C948D1
:1055400090F8D003C0F30010F0B301210920FEF75A
:105550000DFC40F2DC50FDF769FCFFF7C9F8C149CA
:10556000A1F8D6030846B0F8D603B0F5487F15DD9C
:1055700003214FF47A720023BA48B0F8D603CDE97C
:10558000013203910090B748B0F8DC0303460122D2
:105590000F2105901046FFF71FF931E003214FF46A
:1055A0007A720223AF48B0F8D603CDE901320391F5
:1055B0000090AC48B0F8DC03034600220F210590B0
:1055C0000120FFF709F900E004E00121A54880F877
:1055D000CE1315E003204FF47A710023CDE900309B
:1055E000CDE902109F48B0F8DC03034600220F21EA
:1055F00005900120FFF7F0F801219A4880F8CE13BA
:105600001021984880F83D1200210920FEF7AEFBDA
:1056100024E2944890F8D003C0F30010F0B30121C5
:105620000A20FEF7A3FB40F2DC50FDF7FFFBFFF77B
:105630005FF88C49A1F8D6030846B0F8D603B0F558
:10564000487F15DD03214FF47A7200238548B0F8B6
:10565000D603CDE90132039100908248B0F8DC0313
:1056600003460122102105901046FFF7B5F831E0FE
:1056700003214FF47A7202237A48B0F8D603CDE9B9
:105680000132039100907748B0F8DC030346002212
:10569000102105900120FFF79FF800E004E00121B0
:1056A000704880F8CE1315E003204FF47A71002380
:1056B000CDE90030CDE902106A48B0F8DC030346BA
:1056C0000022102105900120FFF786F8012165488E
:1056D00080F8CE13634890F8D00320F010016148A1
:1056E00080F8D013112180F83D1200210A20FEF726
:1056F0003DFB4FF4FA60FDF799FBAFE1012100207B
:10570000FEF734FB4FF4FA60FDF790FB5548B0F814
:10571000DA03B0F5487F39DA5248B0F8B613A0F88A
:10572000D613B0F8D603B0F57A7F15DD03214FF418
:105730007A7200234B48B0F8D603CDE901320391C9
:1057400000904848B0F8DA03034601221121059081
:105750001046FFF741F82FE003214FF47A7202233D
:105760004048B0F8D603CDE90132039100903D489E
:10577000B0F8DA0303460022112105900120FFF75B
:105780002BF80121374880F8CE1315E003204FF4A1
:105790007A710023CDE90030CDE902103148B0F82C
:1057A000DA0303460022112105900120FFF714F8C7
:1057B00001212C4880F8CE1312212A4880F83D128E
:1057C0004CE101210220FEF725FDC820FDF72EFB4C
:1057D0002448B0F8DE03B0F52F7F45DB2148B0F850
:1057E000DE03B0F5FA6F3FDC1E48B0F8C013A0F836
:1057F000E013B0F8E0031E281ADB1A48B0F8E00303
:10580000C82815DC03214FF47A7200231548B0F83C
:10581000E003CDE90132039100901248B0F8DE03B5
:1058200003460122122105901046FEF7D5FF31E014
:1058300003214FF47A7202230A48B0F8E003CDE95D
:105840000132039100900748B0F8DE0303460022BE
:10585000122105900120FEF7BFFF0121014880F8C9
:10586000CE1317E09441002003204FF47A710023F7
:10587000CDE90030CDE902107948B0F8DE030346E7
:105880000022122105900120FEF7A6FF0121744895
:1058900080F8CE131321724880F83D12DEE0704884
:1058A000B0F8E203B0F52F7F43DB6D48B0F8E203B8
:1058B000B0F5FA6F3DDC6A48B0F8C213A0F8E41303
:1058C000B0F8E4031E281ADB6548B0F8E403C828E2
:1058D00015DC03214FF47A7200236148B0F8E40329
:1058E000CDE90132039100905D48B0F8E203034630
:1058F0000122132105901046FEF76EFF2FE00321D1
:105900004FF47A7202235648B0F8E403CDE901322D
:10591000039100905248B0F8E2030346002213219D
:1059200005900120FEF758FF01214D4880F8CE1365
:1059300015E003204FF47A710023CDE90030CDE962
:1059400002104748B0F8E2030346002213210590F5
:105950000120FEF741FF0121414880F8CE130021CC
:105960000846FEF703FA3E4890F8CE0370B90320CC
:105970004FF47A71002200921346CDE90121039081
:105980000122FE211046FEF727FF0CE003204FF412
:105990007A71002200921346CDE901210390FE2185
:1059A0000120FEF719FF14212D4880F83D1255E023
:1059B00000210220FEF72EFC00210320FEF72AFC26
:1059C00000210B20FEF7D2F900210C20FEF7CEF9C2
:1059D00000210D20FEF7CAF96420FDF727FA2048C0
:1059E00090F83C0220F00C001D4981F83C02002197
:1059F0001B4880F83F1280F83D1280F83E1280F874
:105A0000CE1390F83C0220F00200154981F83C02C8
:105A1000084690F8D00320F00101114880F8D01317
:105A200090F8D00320F002010D4880F8D01390F8D0
:105A3000D00320F004010A4880F8D01390F8D00376
:105A400020F08001064880F8D013002180F8D1139F
:105A5000A0F8D213A0F8D41300E000BFFEF759BF9E
:105A60009441002010B54FF44070FAF7B7FC10BD18
:105A700010B50120FBF74FFB2120FBF70AFB044682
:105A80000CB9002010BD4FF4E0110020FBF746FBDD
:105A90000120FBF74FFB00BF3920FBF7FAFA002883
:105AA000FAD03920FBF7F5FA04460220FBF745FB54
:105AB0000020FBF750FB0020FBF756FB0020FBF714
:105AC0005CFB0120DEE710B5FBF7A0FA4FF4803055
:105AD000FBF7BCFAFBF7F9FAFE49087008460078B4
